{
  "_format": "hh-sol-artifact-1",
  "contractName": "PegasysRouter",
  "sourceName": "contracts/pegasys-periphery/PegasysRouter.sol",
  "abi": [
    {
      "inputs": [
        {
          "internalType": "address",
          "name": "_factory",
          "type": "address"
        },
        {
          "internalType": "address",
          "name": "_WSYS",
          "type": "address"
        }
      ],
      "stateMutability": "nonpayable",
      "type": "constructor"
    },
    {
      "inputs": [],
      "name": "WSYS",
      "outputs": [
        {
          "internalType": "address",
          "name": "",
          "type": "address"
        }
      ],
      "stateMutability": "view",
      "type": "function"
    },
    {
      "inputs": [
        {
          "internalType": "address",
          "name": "tokenA",
          "type": "address"
        },
        {
          "internalType": "address",
          "name": "tokenB",
          "type": "address"
        },
        {
          "internalType": "uint256",
          "name": "amountADesired",
          "type": "uint256"
        },
        {
          "internalType": "uint256",
          "name": "amountBDesired",
          "type": "uint256"
        },
        {
          "internalType": "uint256",
          "name": "amountAMin",
          "type": "uint256"
        },
        {
          "internalType": "uint256",
          "name": "amountBMin",
          "type": "uint256"
        },
        {
          "internalType": "address",
          "name": "to",
          "type": "address"
        },
        {
          "internalType": "uint256",
          "name": "deadline",
          "type": "uint256"
        }
      ],
      "name": "addLiquidity",
      "outputs": [
        {
          "internalType": "uint256",
          "name": "amountA",
          "type": "uint256"
        },
        {
          "internalType": "uint256",
          "name": "amountB",
          "type": "uint256"
        },
        {
          "internalType": "uint256",
          "name": "liquidity",
          "type": "uint256"
        }
      ],
      "stateMutability": "nonpayable",
      "type": "function"
    },
    {
      "inputs": [
        {
          "internalType": "address",
          "name": "token",
          "type": "address"
        },
        {
          "internalType": "uint256",
          "name": "amountTokenDesired",
          "type": "uint256"
        },
        {
          "internalType": "uint256",
          "name": "amountTokenMin",
          "type": "uint256"
        },
        {
          "internalType": "uint256",
          "name": "amountSYSMin",
          "type": "uint256"
        },
        {
          "internalType": "address",
          "name": "to",
          "type": "address"
        },
        {
          "internalType": "uint256",
          "name": "deadline",
          "type": "uint256"
        }
      ],
      "name": "addLiquiditySYS",
      "outputs": [
        {
          "internalType": "uint256",
          "name": "amountToken",
          "type": "uint256"
        },
        {
          "internalType": "uint256",
          "name": "amountSYS",
          "type": "uint256"
        },
        {
          "internalType": "uint256",
          "name": "liquidity",
          "type": "uint256"
        }
      ],
      "stateMutability": "payable",
      "type": "function"
    },
    {
      "inputs": [],
      "name": "factory",
      "outputs": [
        {
          "internalType": "address",
          "name": "",
          "type": "address"
        }
      ],
      "stateMutability": "view",
      "type": "function"
    },
    {
      "inputs": [
        {
          "internalType": "uint256",
          "name": "amountOut",
          "type": "uint256"
        },
        {
          "internalType": "uint256",
          "name": "reserveIn",
          "type": "uint256"
        },
        {
          "internalType": "uint256",
          "name": "reserveOut",
          "type": "uint256"
        }
      ],
      "name": "getAmountIn",
      "outputs": [
        {
          "internalType": "uint256",
          "name": "amountIn",
          "type": "uint256"
        }
      ],
      "stateMutability": "pure",
      "type": "function"
    },
    {
      "inputs": [
        {
          "internalType": "uint256",
          "name": "amountIn",
          "type": "uint256"
        },
        {
          "internalType": "uint256",
          "name": "reserveIn",
          "type": "uint256"
        },
        {
          "internalType": "uint256",
          "name": "reserveOut",
          "type": "uint256"
        }
      ],
      "name": "getAmountOut",
      "outputs": [
        {
          "internalType": "uint256",
          "name": "amountOut",
          "type": "uint256"
        }
      ],
      "stateMutability": "pure",
      "type": "function"
    },
    {
      "inputs": [
        {
          "internalType": "uint256",
          "name": "amountOut",
          "type": "uint256"
        },
        {
          "internalType": "address[]",
          "name": "path",
          "type": "address[]"
        }
      ],
      "name": "getAmountsIn",
      "outputs": [
        {
          "internalType": "uint256[]",
          "name": "amounts",
          "type": "uint256[]"
        }
      ],
      "stateMutability": "view",
      "type": "function"
    },
    {
      "inputs": [
        {
          "internalType": "uint256",
          "name": "amountIn",
          "type": "uint256"
        },
        {
          "internalType": "address[]",
          "name": "path",
          "type": "address[]"
        }
      ],
      "name": "getAmountsOut",
      "outputs": [
        {
          "internalType": "uint256[]",
          "name": "amounts",
          "type": "uint256[]"
        }
      ],
      "stateMutability": "view",
      "type": "function"
    },
    {
      "inputs": [
        {
          "internalType": "uint256",
          "name": "amountA",
          "type": "uint256"
        },
        {
          "internalType": "uint256",
          "name": "reserveA",
          "type": "uint256"
        },
        {
          "internalType": "uint256",
          "name": "reserveB",
          "type": "uint256"
        }
      ],
      "name": "quote",
      "outputs": [
        {
          "internalType": "uint256",
          "name": "amountB",
          "type": "uint256"
        }
      ],
      "stateMutability": "pure",
      "type": "function"
    },
    {
      "inputs": [
        {
          "internalType": "address",
          "name": "tokenA",
          "type": "address"
        },
        {
          "internalType": "address",
          "name": "tokenB",
          "type": "address"
        },
        {
          "internalType": "uint256",
          "name": "liquidity",
          "type": "uint256"
        },
        {
          "internalType": "uint256",
          "name": "amountAMin",
          "type": "uint256"
        },
        {
          "internalType": "uint256",
          "name": "amountBMin",
          "type": "uint256"
        },
        {
          "internalType": "address",
          "name": "to",
          "type": "address"
        },
        {
          "internalType": "uint256",
          "name": "deadline",
          "type": "uint256"
        }
      ],
      "name": "removeLiquidity",
      "outputs": [
        {
          "internalType": "uint256",
          "name": "amountA",
          "type": "uint256"
        },
        {
          "internalType": "uint256",
          "name": "amountB",
          "type": "uint256"
        }
      ],
      "stateMutability": "nonpayable",
      "type": "function"
    },
    {
      "inputs": [
        {
          "internalType": "address",
          "name": "token",
          "type": "address"
        },
        {
          "internalType": "uint256",
          "name": "liquidity",
          "type": "uint256"
        },
        {
          "internalType": "uint256",
          "name": "amountTokenMin",
          "type": "uint256"
        },
        {
          "internalType": "uint256",
          "name": "amountSYSMin",
          "type": "uint256"
        },
        {
          "internalType": "address",
          "name": "to",
          "type": "address"
        },
        {
          "internalType": "uint256",
          "name": "deadline",
          "type": "uint256"
        }
      ],
      "name": "removeLiquiditySYS",
      "outputs": [
        {
          "internalType": "uint256",
          "name": "amountToken",
          "type": "uint256"
        },
        {
          "internalType": "uint256",
          "name": "amountSYS",
          "type": "uint256"
        }
      ],
      "stateMutability": "nonpayable",
      "type": "function"
    },
    {
      "inputs": [
        {
          "internalType": "address",
          "name": "token",
          "type": "address"
        },
        {
          "internalType": "uint256",
          "name": "liquidity",
          "type": "uint256"
        },
        {
          "internalType": "uint256",
          "name": "amountTokenMin",
          "type": "uint256"
        },
        {
          "internalType": "uint256",
          "name": "amountSYSMin",
          "type": "uint256"
        },
        {
          "internalType": "address",
          "name": "to",
          "type": "address"
        },
        {
          "internalType": "uint256",
          "name": "deadline",
          "type": "uint256"
        }
      ],
      "name": "removeLiquiditySYSSupportingFeeOnTransferTokens",
      "outputs": [
        {
          "internalType": "uint256",
          "name": "amountSYS",
          "type": "uint256"
        }
      ],
      "stateMutability": "nonpayable",
      "type": "function"
    },
    {
      "inputs": [
        {
          "internalType": "address",
          "name": "token",
          "type": "address"
        },
        {
          "internalType": "uint256",
          "name": "liquidity",
          "type": "uint256"
        },
        {
          "internalType": "uint256",
          "name": "amountTokenMin",
          "type": "uint256"
        },
        {
          "internalType": "uint256",
          "name": "amountSYSMin",
          "type": "uint256"
        },
        {
          "internalType": "address",
          "name": "to",
          "type": "address"
        },
        {
          "internalType": "uint256",
          "name": "deadline",
          "type": "uint256"
        },
        {
          "internalType": "bool",
          "name": "approveMax",
          "type": "bool"
        },
        {
          "internalType": "uint8",
          "name": "v",
          "type": "uint8"
        },
        {
          "internalType": "bytes32",
          "name": "r",
          "type": "bytes32"
        },
        {
          "internalType": "bytes32",
          "name": "s",
          "type": "bytes32"
        }
      ],
      "name": "removeLiquiditySYSWithPermit",
      "outputs": [
        {
          "internalType": "uint256",
          "name": "amountToken",
          "type": "uint256"
        },
        {
          "internalType": "uint256",
          "name": "amountSYS",
          "type": "uint256"
        }
      ],
      "stateMutability": "nonpayable",
      "type": "function"
    },
    {
      "inputs": [
        {
          "internalType": "address",
          "name": "token",
          "type": "address"
        },
        {
          "internalType": "uint256",
          "name": "liquidity",
          "type": "uint256"
        },
        {
          "internalType": "uint256",
          "name": "amountTokenMin",
          "type": "uint256"
        },
        {
          "internalType": "uint256",
          "name": "amountSYSMin",
          "type": "uint256"
        },
        {
          "internalType": "address",
          "name": "to",
          "type": "address"
        },
        {
          "internalType": "uint256",
          "name": "deadline",
          "type": "uint256"
        },
        {
          "internalType": "bool",
          "name": "approveMax",
          "type": "bool"
        },
        {
          "internalType": "uint8",
          "name": "v",
          "type": "uint8"
        },
        {
          "internalType": "bytes32",
          "name": "r",
          "type": "bytes32"
        },
        {
          "internalType": "bytes32",
          "name": "s",
          "type": "bytes32"
        }
      ],
      "name": "removeLiquiditySYSWithPermitSupportingFeeOnTransferTokens",
      "outputs": [
        {
          "internalType": "uint256",
          "name": "amountSYS",
          "type": "uint256"
        }
      ],
      "stateMutability": "nonpayable",
      "type": "function"
    },
    {
      "inputs": [
        {
          "internalType": "address",
          "name": "tokenA",
          "type": "address"
        },
        {
          "internalType": "address",
          "name": "tokenB",
          "type": "address"
        },
        {
          "internalType": "uint256",
          "name": "liquidity",
          "type": "uint256"
        },
        {
          "internalType": "uint256",
          "name": "amountAMin",
          "type": "uint256"
        },
        {
          "internalType": "uint256",
          "name": "amountBMin",
          "type": "uint256"
        },
        {
          "internalType": "address",
          "name": "to",
          "type": "address"
        },
        {
          "internalType": "uint256",
          "name": "deadline",
          "type": "uint256"
        },
        {
          "internalType": "bool",
          "name": "approveMax",
          "type": "bool"
        },
        {
          "internalType": "uint8",
          "name": "v",
          "type": "uint8"
        },
        {
          "internalType": "bytes32",
          "name": "r",
          "type": "bytes32"
        },
        {
          "internalType": "bytes32",
          "name": "s",
          "type": "bytes32"
        }
      ],
      "name": "removeLiquidityWithPermit",
      "outputs": [
        {
          "internalType": "uint256",
          "name": "amountA",
          "type": "uint256"
        },
        {
          "internalType": "uint256",
          "name": "amountB",
          "type": "uint256"
        }
      ],
      "stateMutability": "nonpayable",
      "type": "function"
    },
    {
      "inputs": [
        {
          "internalType": "uint256",
          "name": "amountOutMin",
          "type": "uint256"
        },
        {
          "internalType": "address[]",
          "name": "path",
          "type": "address[]"
        },
        {
          "internalType": "address",
          "name": "to",
          "type": "address"
        },
        {
          "internalType": "uint256",
          "name": "deadline",
          "type": "uint256"
        }
      ],
      "name": "swapExactSYSForTokens",
      "outputs": [
        {
          "internalType": "uint256[]",
          "name": "amounts",
          "type": "uint256[]"
        }
      ],
      "stateMutability": "payable",
      "type": "function"
    },
    {
      "inputs": [
        {
          "internalType": "uint256",
          "name": "amountOutMin",
          "type": "uint256"
        },
        {
          "internalType": "address[]",
          "name": "path",
          "type": "address[]"
        },
        {
          "internalType": "address",
          "name": "to",
          "type": "address"
        },
        {
          "internalType": "uint256",
          "name": "deadline",
          "type": "uint256"
        }
      ],
      "name": "swapExactSYSForTokensSupportingFeeOnTransferTokens",
      "outputs": [],
      "stateMutability": "payable",
      "type": "function"
    },
    {
      "inputs": [
        {
          "internalType": "uint256",
          "name": "amountIn",
          "type": "uint256"
        },
        {
          "internalType": "uint256",
          "name": "amountOutMin",
          "type": "uint256"
        },
        {
          "internalType": "address[]",
          "name": "path",
          "type": "address[]"
        },
        {
          "internalType": "address",
          "name": "to",
          "type": "address"
        },
        {
          "internalType": "uint256",
          "name": "deadline",
          "type": "uint256"
        }
      ],
      "name": "swapExactTokensForSYS",
      "outputs": [
        {
          "internalType": "uint256[]",
          "name": "amounts",
          "type": "uint256[]"
        }
      ],
      "stateMutability": "nonpayable",
      "type": "function"
    },
    {
      "inputs": [
        {
          "internalType": "uint256",
          "name": "amountIn",
          "type": "uint256"
        },
        {
          "internalType": "uint256",
          "name": "amountOutMin",
          "type": "uint256"
        },
        {
          "internalType": "address[]",
          "name": "path",
          "type": "address[]"
        },
        {
          "internalType": "address",
          "name": "to",
          "type": "address"
        },
        {
          "internalType": "uint256",
          "name": "deadline",
          "type": "uint256"
        }
      ],
      "name": "swapExactTokensForSYSSupportingFeeOnTransferTokens",
      "outputs": [],
      "stateMutability": "nonpayable",
      "type": "function"
    },
    {
      "inputs": [
        {
          "internalType": "uint256",
          "name": "amountIn",
          "type": "uint256"
        },
        {
          "internalType": "uint256",
          "name": "amountOutMin",
          "type": "uint256"
        },
        {
          "internalType": "address[]",
          "name": "path",
          "type": "address[]"
        },
        {
          "internalType": "address",
          "name": "to",
          "type": "address"
        },
        {
          "internalType": "uint256",
          "name": "deadline",
          "type": "uint256"
        }
      ],
      "name": "swapExactTokensForTokens",
      "outputs": [
        {
          "internalType": "uint256[]",
          "name": "amounts",
          "type": "uint256[]"
        }
      ],
      "stateMutability": "nonpayable",
      "type": "function"
    },
    {
      "inputs": [
        {
          "internalType": "uint256",
          "name": "amountIn",
          "type": "uint256"
        },
        {
          "internalType": "uint256",
          "name": "amountOutMin",
          "type": "uint256"
        },
        {
          "internalType": "address[]",
          "name": "path",
          "type": "address[]"
        },
        {
          "internalType": "address",
          "name": "to",
          "type": "address"
        },
        {
          "internalType": "uint256",
          "name": "deadline",
          "type": "uint256"
        }
      ],
      "name": "swapExactTokensForTokensSupportingFeeOnTransferTokens",
      "outputs": [],
      "stateMutability": "nonpayable",
      "type": "function"
    },
    {
      "inputs": [
        {
          "internalType": "uint256",
          "name": "amountOut",
          "type": "uint256"
        },
        {
          "internalType": "address[]",
          "name": "path",
          "type": "address[]"
        },
        {
          "internalType": "address",
          "name": "to",
          "type": "address"
        },
        {
          "internalType": "uint256",
          "name": "deadline",
          "type": "uint256"
        }
      ],
      "name": "swapSYSForExactTokens",
      "outputs": [
        {
          "internalType": "uint256[]",
          "name": "amounts",
          "type": "uint256[]"
        }
      ],
      "stateMutability": "payable",
      "type": "function"
    },
    {
      "inputs": [
        {
          "internalType": "uint256",
          "name": "amountOut",
          "type": "uint256"
        },
        {
          "internalType": "uint256",
          "name": "amountInMax",
          "type": "uint256"
        },
        {
          "internalType": "address[]",
          "name": "path",
          "type": "address[]"
        },
        {
          "internalType": "address",
          "name": "to",
          "type": "address"
        },
        {
          "internalType": "uint256",
          "name": "deadline",
          "type": "uint256"
        }
      ],
      "name": "swapTokensForExactSYS",
      "outputs": [
        {
          "internalType": "uint256[]",
          "name": "amounts",
          "type": "uint256[]"
        }
      ],
      "stateMutability": "nonpayable",
      "type": "function"
    },
    {
      "inputs": [
        {
          "internalType": "uint256",
          "name": "amountOut",
          "type": "uint256"
        },
        {
          "internalType": "uint256",
          "name": "amountInMax",
          "type": "uint256"
        },
        {
          "internalType": "address[]",
          "name": "path",
          "type": "address[]"
        },
        {
          "internalType": "address",
          "name": "to",
          "type": "address"
        },
        {
          "internalType": "uint256",
          "name": "deadline",
          "type": "uint256"
        }
      ],
      "name": "swapTokensForExactTokens",
      "outputs": [
        {
          "internalType": "uint256[]",
          "name": "amounts",
          "type": "uint256[]"
        }
      ],
      "stateMutability": "nonpayable",
      "type": "function"
    },
    {
      "stateMutability": "payable",
      "type": "receive"
    }
  ],
  "bytecode": "0x60c060405234801561001057600080fd5b5060405162004958380380620049588339818101604052604081101561003557600080fd5b5080516020909101516001600160601b0319606092831b8116608052911b1660a05260805160601c60a05160601c6147d3620001856000398061019e5280610d3d5280610de45280610e58528061119e52806111d9528061128252806112f7528061144c52806114d452806116a852806118c05280611a085280611b605280611be85280611fc5528061201b528061204f52806120c35280612587528061263652806129b05280612b5a5280612de25280612eee5280612fa45280613054525080610e8a528061139c52806115065280611748528061181c52806119865280611aad5280611c1a5280611d255280611e6b5280611ff952806122905280612482528061272252806129335280612a505280612b085280612b385280612cb05280613032528061326752806133ed5280613b1c5280613b525280613f99528061406052806140e052506147d36000f3fe60806040526004361061018e5760003560e01c806385f8c259116100d6578063c78c12cf1161007f578063e8e3370011610059578063e8e3370014610b7f578063ee8794c414610be1578063f1a730bd14610c79576101c7565b8063c78c12cf146109bd578063d06ca61f14610a55578063dfd9111b14610b0c576101c7565b8063ad615dec116100b0578063ad615dec14610915578063baa2abde1461094b578063c45a0155146109a8576101c7565b806385f8c259146107f45780638803dbee1461082a578063aab4c40b146108c2576101c7565b80631f00ca741161013857806338ed17391161011257806338ed1739146106605780633c7356d5146106f85780635c11d7951461075c576101c7565b80631f00ca74146104a55780631fef23891461055c5780632195995c146105e2576101c7565b806308b0b4351161016957806308b0b4351461030657806308e4e89e14610337578063181950fd1461040d576101c7565b8062121258146101cc578063016c841414610252578063054d50d4146102be576101c7565b366101c757336001600160a01b037f000000000000000000000000000000000000000000000000000000000000000016146101c557fe5b005b600080fd5b6101c5600480360360808110156101e257600080fd5b8135919081019060408101602082013564010000000081111561020457600080fd5b82018360208201111561021657600080fd5b8035906020019184602083028401116401000000008311171561023857600080fd5b91935091506001600160a01b038135169060200135610cec565b34801561025e57600080fd5b506102a5600480360360c081101561027557600080fd5b506001600160a01b0381358116916020810135916040820135916060810135916080820135169060a00135611146565b6040805192835260208301919091528051918290030190f35b3480156102ca57600080fd5b506102f4600480360360608110156102e157600080fd5b508035906020810135906040013561126b565b60408051918252519081900360200190f35b34801561031257600080fd5b5061031b611280565b604080516001600160a01b039092168252519081900360200190f35b6103bd6004803603608081101561034d57600080fd5b8135919081019060408101602082013564010000000081111561036f57600080fd5b82018360208201111561038157600080fd5b803590602001918460208302840111640100000000831117156103a357600080fd5b91935091506001600160a01b0381351690602001356112a4565b60408051602080825283518183015283519192839290830191858101910280838360005b838110156103f95781810151838201526020016103e1565b505050509050019250505060405180910390f35b34801561041957600080fd5b506103bd600480360360a081101561043057600080fd5b81359160208101359181019060608101604082013564010000000081111561045757600080fd5b82018360208201111561046957600080fd5b8035906020019184602083028401116401000000008311171561048b57600080fd5b91935091506001600160a01b03813516906020013561164d565b3480156104b157600080fd5b506103bd600480360360408110156104c857600080fd5b813591908101906040810160208201356401000000008111156104ea57600080fd5b8201836020820111156104fc57600080fd5b8035906020019184602083028401116401000000008311171561051e57600080fd5b91908080602002602001604051908101604052809392919081815260200183836020028082843760009201919091525092955061197f945050505050565b6103bd6004803603608081101561057257600080fd5b8135919081019060408101602082013564010000000081111561059457600080fd5b8201836020820111156105a657600080fd5b803590602001918460208302840111640100000000831117156105c857600080fd5b91935091506001600160a01b0381351690602001356119b5565b3480156105ee57600080fd5b506102a5600480360361016081101561060657600080fd5b506001600160a01b038135811691602081013582169160408201359160608101359160808201359160a08101359091169060c08101359060e081013515159060ff6101008201351690610120810135906101400135611d1b565b34801561066c57600080fd5b506103bd600480360360a081101561068357600080fd5b8135916020810135918101906060810160408201356401000000008111156106aa57600080fd5b8201836020820111156106bc57600080fd5b803590602001918460208302840111640100000000831117156106de57600080fd5b91935091506001600160a01b038135169060200135611e15565b61073e600480360360c081101561070e57600080fd5b506001600160a01b0381358116916020810135916040820135916060810135916080820135169060a00135611f6b565b60408051938452602084019290925282820152519081900360600190f35b34801561076857600080fd5b506101c5600480360360a081101561077f57600080fd5b8135916020810135918101906060810160408201356401000000008111156107a657600080fd5b8201836020820111156107b857600080fd5b803590602001918460208302840111640100000000831117156107da57600080fd5b91935091506001600160a01b03813516906020013561221b565b34801561080057600080fd5b506102f46004803603606081101561081757600080fd5b508035906020810135906040013561241f565b34801561083657600080fd5b506103bd600480360360a081101561084d57600080fd5b81359160208101359181019060608101604082013564010000000081111561087457600080fd5b82018360208201111561088657600080fd5b803590602001918460208302840111640100000000831117156108a857600080fd5b91935091506001600160a01b03813516906020013561242c565b3480156108ce57600080fd5b506102f4600480360360c08110156108e557600080fd5b506001600160a01b0381358116916020810135916040820135916060810135916080820135169060a00135612530565b34801561092157600080fd5b506102f46004803603606081101561093857600080fd5b50803590602081013590604001356126bc565b34801561095757600080fd5b506102a5600480360360e081101561096e57600080fd5b506001600160a01b038135811691602081013582169160408201359160608101359160808201359160a08101359091169060c001356126c9565b3480156109b457600080fd5b5061031b612931565b3480156109c957600080fd5b506103bd600480360360a08110156109e057600080fd5b813591602081013591810190606081016040820135640100000000811115610a0757600080fd5b820183602082011115610a1957600080fd5b80359060200191846020830284011164010000000083111715610a3b57600080fd5b91935091506001600160a01b038135169060200135612955565b348015610a6157600080fd5b506103bd60048036036040811015610a7857600080fd5b81359190810190604081016020820135640100000000811115610a9a57600080fd5b820183602082011115610aac57600080fd5b80359060200191846020830284011164010000000083111715610ace57600080fd5b919080806020026020016040519081016040528093929190818152602001838360200280828437600092019190915250929550612b01945050505050565b348015610b1857600080fd5b506102a56004803603610140811015610b3057600080fd5b506001600160a01b0381358116916020810135916040820135916060810135916080820135169060a08101359060c081013515159060ff60e08201351690610100810135906101200135612b2e565b348015610b8b57600080fd5b5061073e6004803603610100811015610ba357600080fd5b506001600160a01b038135811691602081013582169160408201359160608101359160808201359160a08101359160c0820135169060e00135612c42565b348015610bed57600080fd5b506101c5600480360360a0811015610c0457600080fd5b813591602081013591810190606081016040820135640100000000811115610c2b57600080fd5b820183602082011115610c3d57600080fd5b80359060200191846020830284011164010000000083111715610c5f57600080fd5b91935091506001600160a01b038135169060200135612d89565b348015610c8557600080fd5b506102f46004803603610140811015610c9d57600080fd5b506001600160a01b0381358116916020810135916040820135916060810135916080820135169060a08101359060c081013515159060ff60e0820135169061010081013590610120013561302a565b8042811015610d3b576040805162461bcd60e51b8152602060048201526016602482015275141959d85cde5cd49bdd5d195c8e881156141254915160521b604482015290519081900360640190fd5b7f00000000000000000000000000000000000000000000000000000000000000006001600160a01b031685856000818110610d7257fe5b905060200201356001600160a01b03166001600160a01b031614610ddd576040805162461bcd60e51b815260206004820152601b60248201527f50656761737973526f757465723a20494e56414c49445f504154480000000000604482015290519081900360640190fd5b60003490507f00000000000000000000000000000000000000000000000000000000000000006001600160a01b031663d0e30db0826040518263ffffffff1660e01b81526004016000604051808303818588803b158015610e3d57600080fd5b505af1158015610e51573d6000803e3d6000fd5b50505050507f00000000000000000000000000000000000000000000000000000000000000006001600160a01b031663a9059cbb610ee87f000000000000000000000000000000000000000000000000000000000000000089896000818110610eb657fe5b905060200201356001600160a01b03168a8a6001818110610ed357fe5b905060200201356001600160a01b0316613138565b836040518363ffffffff1660e01b815260040180836001600160a01b03166001600160a01b0316815260200182815260200192505050602060405180830381600087803b158015610f3857600080fd5b505af1158015610f4c573d6000803e3d6000fd5b505050506040513d6020811015610f6257600080fd5b5051610f6a57fe5b600086866000198101818110610f7c57fe5b905060200201356001600160a01b03166001600160a01b03166370a08231866040518263ffffffff1660e01b815260040180826001600160a01b03166001600160a01b0316815260200191505060206040518083038186803b158015610fe157600080fd5b505afa158015610ff5573d6000803e3d6000fd5b505050506040513d602081101561100b57600080fd5b5051604080516020898102828101820190935289825292935061104d9290918a918a918291850190849080828437600092019190915250899250613210915050565b876110ff828989600019810181811061106257fe5b905060200201356001600160a01b03166001600160a01b03166370a08231896040518263ffffffff1660e01b815260040180826001600160a01b03166001600160a01b0316815260200191505060206040518083038186803b1580156110c757600080fd5b505afa1580156110db573d6000803e3d6000fd5b505050506040513d60208110156110f157600080fd5b50519063ffffffff61354d16565b101561113c5760405162461bcd60e51b815260040180806020018281038252602981526020018061472c6029913960400191505060405180910390fd5b5050505050505050565b6000808242811015611198576040805162461bcd60e51b8152602060048201526016602482015275141959d85cde5cd49bdd5d195c8e881156141254915160521b604482015290519081900360640190fd5b6111c7897f00000000000000000000000000000000000000000000000000000000000000008a8a8a308a6126c9565b90935091506111d78986856135a5565b7f00000000000000000000000000000000000000000000000000000000000000006001600160a01b0316632e1a7d4d836040518263ffffffff1660e01b815260040180828152602001915050600060405180830381600087803b15801561123d57600080fd5b505af1158015611251573d6000803e3d6000fd5b5050505061125f858361373d565b50965096945050505050565b6000611278848484613830565b949350505050565b7f000000000000000000000000000000000000000000000000000000000000000081565b606081428110156112f5576040805162461bcd60e51b8152602060048201526016602482015275141959d85cde5cd49bdd5d195c8e881156141254915160521b604482015290519081900360640190fd5b7f00000000000000000000000000000000000000000000000000000000000000006001600160a01b03168686600081811061132c57fe5b905060200201356001600160a01b03166001600160a01b031614611397576040805162461bcd60e51b815260206004820152601b60248201527f50656761737973526f757465723a20494e56414c49445f504154480000000000604482015290519081900360640190fd5b6113f57f00000000000000000000000000000000000000000000000000000000000000008888888080602002602001604051908101604052809392919081815260200183836020028082843760009201919091525061392092505050565b9150348260008151811061140557fe5b6020026020010151111561144a5760405162461bcd60e51b81526004018080602001828103825260258152602001806147796025913960400191505060405180910390fd5b7f00000000000000000000000000000000000000000000000000000000000000006001600160a01b031663d0e30db08360008151811061148657fe5b60200260200101516040518263ffffffff1660e01b81526004016000604051808303818588803b1580156114b957600080fd5b505af11580156114cd573d6000803e3d6000fd5b50505050507f00000000000000000000000000000000000000000000000000000000000000006001600160a01b031663a9059cbb6115327f000000000000000000000000000000000000000000000000000000000000000089896000818110610eb657fe5b8460008151811061153f57fe5b60200260200101516040518363ffffffff1660e01b815260040180836001600160a01b03166001600160a01b0316815260200182815260200192505050602060405180830381600087803b15801561159657600080fd5b505af11580156115aa573d6000803e3d6000fd5b505050506040513d60208110156115c057600080fd5b50516115c857fe5b61160782878780806020026020016040519081016040528093929190818152602001838360200280828437600092019190915250899250613a6d915050565b8160008151811061161457fe5b602002602001015134111561164357611643338360008151811061163457fe5b6020026020010151340361373d565b5095945050505050565b6060814281101561169e576040805162461bcd60e51b8152602060048201526016602482015275141959d85cde5cd49bdd5d195c8e881156141254915160521b604482015290519081900360640190fd5b6001600160a01b037f000000000000000000000000000000000000000000000000000000000000000016868660001981018181106116d857fe5b905060200201356001600160a01b03166001600160a01b031614611743576040805162461bcd60e51b815260206004820152601b60248201527f50656761737973526f757465723a20494e56414c49445f504154480000000000604482015290519081900360640190fd5b6117a17f00000000000000000000000000000000000000000000000000000000000000008988888080602002602001604051908101604052809392919081815260200183836020028082843760009201919091525061392092505050565b915086826000815181106117b157fe5b602002602001015111156117f65760405162461bcd60e51b81526004018080602001828103825260258152602001806147796025913960400191505060405180910390fd5b61187f8686600081811061180657fe5b905060200201356001600160a01b0316336118657f00000000000000000000000000000000000000000000000000000000000000008a8a600081811061184857fe5b905060200201356001600160a01b03168b8b6001818110610ed357fe5b8560008151811061187257fe5b6020026020010151613ca6565b6118be82878780806020026020016040519081016040528093929190818152602001838360200280828437600092019190915250309250613a6d915050565b7f00000000000000000000000000000000000000000000000000000000000000006001600160a01b0316632e1a7d4d836001855103815181106118fd57fe5b60200260200101516040518263ffffffff1660e01b815260040180828152602001915050600060405180830381600087803b15801561193b57600080fd5b505af115801561194f573d6000803e3d6000fd5b50505050611974848360018551038151811061196757fe5b602002602001015161373d565b509695505050505050565b60606119ac7f00000000000000000000000000000000000000000000000000000000000000008484613920565b90505b92915050565b60608142811015611a06576040805162461bcd60e51b8152602060048201526016602482015275141959d85cde5cd49bdd5d195c8e881156141254915160521b604482015290519081900360640190fd5b7f00000000000000000000000000000000000000000000000000000000000000006001600160a01b031686866000818110611a3d57fe5b905060200201356001600160a01b03166001600160a01b031614611aa8576040805162461bcd60e51b815260206004820152601b60248201527f50656761737973526f757465723a20494e56414c49445f504154480000000000604482015290519081900360640190fd5b611b067f000000000000000000000000000000000000000000000000000000000000000034888880806020026020016040519081016040528093929190818152602001838360200280828437600092019190915250613e1892505050565b91508682600184510381518110611b1957fe5b60200260200101511015611b5e5760405162461bcd60e51b815260040180806020018281038252602981526020018061472c6029913960400191505060405180910390fd5b7f00000000000000000000000000000000000000000000000000000000000000006001600160a01b031663d0e30db083600081518110611b9a57fe5b60200260200101516040518263ffffffff1660e01b81526004016000604051808303818588803b158015611bcd57600080fd5b505af1158015611be1573d6000803e3d6000fd5b50505050507f00000000000000000000000000000000000000000000000000000000000000006001600160a01b031663a9059cbb611c467f000000000000000000000000000000000000000000000000000000000000000089896000818110610eb657fe5b84600081518110611c5357fe5b60200260200101516040518363ffffffff1660e01b815260040180836001600160a01b03166001600160a01b0316815260200182815260200192505050602060405180830381600087803b158015611caa57600080fd5b505af1158015611cbe573d6000803e3d6000fd5b505050506040513d6020811015611cd457600080fd5b5051611cdc57fe5b61164382878780806020026020016040519081016040528093929190818152602001838360200280828437600092019190915250899250613a6d915050565b6000806000611d4b7f00000000000000000000000000000000000000000000000000000000000000008f8f613138565b9050600087611d5a578c611d5e565b6000195b6040805163d505accf60e01b815233600482015230602482015260448101839052606481018c905260ff8a16608482015260a4810189905260c4810188905290519192506001600160a01b0384169163d505accf9160e48082019260009290919082900301818387803b158015611dd457600080fd5b505af1158015611de8573d6000803e3d6000fd5b50505050611dfb8f8f8f8f8f8f8f6126c9565b809450819550505050509b509b9950505050505050505050565b60608142811015611e66576040805162461bcd60e51b8152602060048201526016602482015275141959d85cde5cd49bdd5d195c8e881156141254915160521b604482015290519081900360640190fd5b611ec47f000000000000000000000000000000000000000000000000000000000000000089888880806020026020016040519081016040528093929190818152602001838360200280828437600092019190915250613e1892505050565b91508682600184510381518110611ed757fe5b60200260200101511015611f1c5760405162461bcd60e51b815260040180806020018281038252602981526020018061472c6029913960400191505060405180910390fd5b611f2c8686600081811061180657fe5b61197482878780806020026020016040519081016040528093929190818152602001838360200280828437600092019190915250899250613a6d915050565b60008060008342811015611fbf576040805162461bcd60e51b8152602060048201526016602482015275141959d85cde5cd49bdd5d195c8e881156141254915160521b604482015290519081900360640190fd5b611fed8a7f00000000000000000000000000000000000000000000000000000000000000008b348c8c613f4f565b9094509250600061203f7f00000000000000000000000000000000000000000000000000000000000000008c7f0000000000000000000000000000000000000000000000000000000000000000613138565b905061204d8b338388613ca6565b7f00000000000000000000000000000000000000000000000000000000000000006001600160a01b031663d0e30db0856040518263ffffffff1660e01b81526004016000604051808303818588803b1580156120a857600080fd5b505af11580156120bc573d6000803e3d6000fd5b50505050507f00000000000000000000000000000000000000000000000000000000000000006001600160a01b031663a9059cbb82866040518363ffffffff1660e01b815260040180836001600160a01b03166001600160a01b0316815260200182815260200192505050602060405180830381600087803b15801561214157600080fd5b505af1158015612155573d6000803e3d6000fd5b505050506040513d602081101561216b57600080fd5b505161217357fe5b806001600160a01b0316636a627842886040518263ffffffff1660e01b815260040180826001600160a01b03166001600160a01b03168152602001915050602060405180830381600087803b1580156121cb57600080fd5b505af11580156121df573d6000803e3d6000fd5b505050506040513d60208110156121f557600080fd5b505192503484101561220d5761220d3385340361373d565b505096509650969350505050565b804281101561226a576040805162461bcd60e51b8152602060048201526016602482015275141959d85cde5cd49bdd5d195c8e881156141254915160521b604482015290519081900360640190fd5b6122c28585600081811061227a57fe5b905060200201356001600160a01b0316336122bc7f000000000000000000000000000000000000000000000000000000000000000089896000818110610eb657fe5b8a613ca6565b6000858560001981018181106122d457fe5b905060200201356001600160a01b03166001600160a01b03166370a08231856040518263ffffffff1660e01b815260040180826001600160a01b03166001600160a01b0316815260200191505060206040518083038186803b15801561233957600080fd5b505afa15801561234d573d6000803e3d6000fd5b505050506040513d602081101561236357600080fd5b505160408051602088810282810182019093528882529293506123a5929091899189918291850190849080828437600092019190915250889250613210915050565b866110ff82888860001981018181106123ba57fe5b905060200201356001600160a01b03166001600160a01b03166370a08231886040518263ffffffff1660e01b815260040180826001600160a01b03166001600160a01b0316815260200191505060206040518083038186803b1580156110c757600080fd5b60006112788484846141f5565b6060814281101561247d576040805162461bcd60e51b8152602060048201526016602482015275141959d85cde5cd49bdd5d195c8e881156141254915160521b604482015290519081900360640190fd5b6124db7f00000000000000000000000000000000000000000000000000000000000000008988888080602002602001604051908101604052809392919081815260200183836020028082843760009201919091525061392092505050565b915086826000815181106124eb57fe5b60200260200101511115611f1c5760405162461bcd60e51b81526004018080602001828103825260258152602001806147796025913960400191505060405180910390fd5b60008142811015612581576040805162461bcd60e51b8152602060048201526016602482015275141959d85cde5cd49bdd5d195c8e881156141254915160521b604482015290519081900360640190fd5b6125b0887f000000000000000000000000000000000000000000000000000000000000000089898930896126c9565b604080516370a0823160e01b8152306004820152905191945061263492508a9187916001600160a01b038416916370a0823191602480820192602092909190829003018186803b15801561260357600080fd5b505afa158015612617573d6000803e3d6000fd5b505050506040513d602081101561262d57600080fd5b50516135a5565b7f00000000000000000000000000000000000000000000000000000000000000006001600160a01b0316632e1a7d4d836040518263ffffffff1660e01b815260040180828152602001915050600060405180830381600087803b15801561269a57600080fd5b505af11580156126ae573d6000803e3d6000fd5b50505050611974848361373d565b60006112788484846142e5565b600080824281101561271b576040805162461bcd60e51b8152602060048201526016602482015275141959d85cde5cd49bdd5d195c8e881156141254915160521b604482015290519081900360640190fd5b60006127487f00000000000000000000000000000000000000000000000000000000000000008c8c613138565b604080516323b872dd60e01b81523360048201526001600160a01b03831660248201819052604482018d9052915192935090916323b872dd916064808201926020929091908290030181600087803b1580156127a357600080fd5b505af11580156127b7573d6000803e3d6000fd5b505050506040513d60208110156127cd57600080fd5b5050604080517f89afcb440000000000000000000000000000000000000000000000000000000081526001600160a01b03888116600483015282516000938493928616926389afcb44926024808301939282900301818787803b15801561283357600080fd5b505af1158015612847573d6000803e3d6000fd5b505050506040513d604081101561285d57600080fd5b508051602090910151909250905060006128778e8e614391565b509050806001600160a01b03168e6001600160a01b03161461289a57818361289d565b82825b90975095508a8710156128e15760405162461bcd60e51b815260040180806020018281038252602481526020018061462b6024913960400191505060405180910390fd5b898610156129205760405162461bcd60e51b81526004018080602001828103825260248152602001806146e56024913960400191505060405180910390fd5b505050505097509795505050505050565b7f000000000000000000000000000000000000000000000000000000000000000081565b606081428110156129a6576040805162461bcd60e51b8152602060048201526016602482015275141959d85cde5cd49bdd5d195c8e881156141254915160521b604482015290519081900360640190fd5b6001600160a01b037f000000000000000000000000000000000000000000000000000000000000000016868660001981018181106129e057fe5b905060200201356001600160a01b03166001600160a01b031614612a4b576040805162461bcd60e51b815260206004820152601b60248201527f50656761737973526f757465723a20494e56414c49445f504154480000000000604482015290519081900360640190fd5b612aa97f000000000000000000000000000000000000000000000000000000000000000089888880806020026020016040519081016040528093929190818152602001838360200280828437600092019190915250613e1892505050565b91508682600184510381518110612abc57fe5b602002602001015110156117f65760405162461bcd60e51b815260040180806020018281038252602981526020018061472c6029913960400191505060405180910390fd5b60606119ac7f00000000000000000000000000000000000000000000000000000000000000008484613e18565b6000806000612b7e7f00000000000000000000000000000000000000000000000000000000000000008e7f0000000000000000000000000000000000000000000000000000000000000000613138565b9050600087612b8d578c612b91565b6000195b6040805163d505accf60e01b815233600482015230602482015260448101839052606481018c905260ff8a16608482015260a4810189905260c4810188905290519192506001600160a01b0384169163d505accf9160e48082019260009290919082900301818387803b158015612c0757600080fd5b505af1158015612c1b573d6000803e3d6000fd5b50505050612c2d8e8e8e8e8e8e611146565b909f909e509c50505050505050505050505050565b60008060008342811015612c96576040805162461bcd60e51b8152602060048201526016602482015275141959d85cde5cd49bdd5d195c8e881156141254915160521b604482015290519081900360640190fd5b612ca48c8c8c8c8c8c613f4f565b90945092506000612cd67f00000000000000000000000000000000000000000000000000000000000000008e8e613138565b9050612ce48d338388613ca6565b612cf08c338387613ca6565b806001600160a01b0316636a627842886040518263ffffffff1660e01b815260040180826001600160a01b03166001600160a01b03168152602001915050602060405180830381600087803b158015612d4857600080fd5b505af1158015612d5c573d6000803e3d6000fd5b505050506040513d6020811015612d7257600080fd5b5051949d939c50939a509198505050505050505050565b8042811015612dd8576040805162461bcd60e51b8152602060048201526016602482015275141959d85cde5cd49bdd5d195c8e881156141254915160521b604482015290519081900360640190fd5b6001600160a01b037f00000000000000000000000000000000000000000000000000000000000000001685856000198101818110612e1257fe5b905060200201356001600160a01b03166001600160a01b031614612e7d576040805162461bcd60e51b815260206004820152601b60248201527f50656761737973526f757465723a20494e56414c49445f504154480000000000604482015290519081900360640190fd5b612e8d8585600081811061227a57fe5b612ecb858580806020026020016040519081016040528093929190818152602001838360200280828437600092019190915250309250613210915050565b604080516370a0823160e01b815230600482015290516000916001600160a01b037f000000000000000000000000000000000000000000000000000000000000000016916370a0823191602480820192602092909190829003018186803b158015612f3557600080fd5b505afa158015612f49573d6000803e3d6000fd5b505050506040513d6020811015612f5f57600080fd5b5051905086811015612fa25760405162461bcd60e51b815260040180806020018281038252602981526020018061472c6029913960400191505060405180910390fd5b7f00000000000000000000000000000000000000000000000000000000000000006001600160a01b0316632e1a7d4d826040518263ffffffff1660e01b815260040180828152602001915050600060405180830381600087803b15801561300857600080fd5b505af115801561301c573d6000803e3d6000fd5b5050505061113c848261373d565b6000806130787f00000000000000000000000000000000000000000000000000000000000000008d7f0000000000000000000000000000000000000000000000000000000000000000613138565b9050600086613087578b61308b565b6000195b6040805163d505accf60e01b815233600482015230602482015260448101839052606481018b905260ff8916608482015260a4810188905260c4810187905290519192506001600160a01b0384169163d505accf9160e48082019260009290919082900301818387803b15801561310157600080fd5b505af1158015613115573d6000803e3d6000fd5b505050506131278d8d8d8d8d8d612530565b9d9c50505050505050505050505050565b60008060006131478585614391565b604080516bffffffffffffffffffffffff19606094851b811660208084019190915293851b81166034830152825160288184030181526048830184528051908501207fff0000000000000000000000000000000000000000000000000000000000000060688401529a90941b9093166069840152607d8301989098527f85c9b07c539b322c33da730d88df8396983c35a411da73d3d6c2278474890833609d808401919091528851808403909101815260bd909201909752805196019590952095945050505050565b60005b60018351038110156135485760008084838151811061322e57fe5b602002602001015185846001018151811061324557fe5b602002602001015191509150600061325d8383614391565b509050600061328d7f00000000000000000000000000000000000000000000000000000000000000008585613138565b9050600080600080846001600160a01b0316630902f1ac6040518163ffffffff1660e01b815260040160606040518083038186803b1580156132ce57600080fd5b505afa1580156132e2573d6000803e3d6000fd5b505050506040513d60608110156132f857600080fd5b5080516020909101516dffffffffffffffffffffffffffff91821693501690506000806001600160a01b038a811690891614613335578284613338565b83835b91509150613396828b6001600160a01b03166370a082318a6040518263ffffffff1660e01b815260040180826001600160a01b03166001600160a01b0316815260200191505060206040518083038186803b1580156110c757600080fd5b95506133a3868383613830565b945050505050600080856001600160a01b0316886001600160a01b0316146133cd578260006133d1565b6000835b91509150600060028c51038a106133e8578a613429565b6134297f0000000000000000000000000000000000000000000000000000000000000000898e8d6002018151811061341c57fe5b6020026020010151613138565b60408051600080825260208201928390527f022c0d9f00000000000000000000000000000000000000000000000000000000835260248201878152604483018790526001600160a01b038086166064850152608060848501908152845160a48601819052969750908c169563022c0d9f958a958a958a9591949193919260c486019290918190849084905b838110156134cc5781810151838201526020016134b4565b50505050905090810190601f1680156134f95780820380516001836020036101000a031916815260200191505b5095505050505050600060405180830381600087803b15801561351b57600080fd5b505af115801561352f573d6000803e3d6000fd5b50506001909b019a506132139950505050505050505050565b505050565b808203828111156119af576040805162461bcd60e51b815260206004820152601560248201527f64732d6d6174682d7375622d756e646572666c6f770000000000000000000000604482015290519081900360640190fd5b604080516001600160a01b038481166024830152604480830185905283518084039091018152606490920183526020820180517bffffffffffffffffffffffffffffffffffffffffffffffffffffffff167fa9059cbb00000000000000000000000000000000000000000000000000000000178152925182516000946060949389169392918291908083835b602083106136505780518252601f199092019160209182019101613631565b6001836020036101000a0380198251168184511680821785525050505050509050019150506000604051808303816000865af19150503d80600081146136b2576040519150601f19603f3d011682016040523d82523d6000602084013e6136b7565b606091505b50915091508180156136e55750805115806136e557508080602001905160208110156136e257600080fd5b50515b613736576040805162461bcd60e51b815260206004820152601f60248201527f5472616e7366657248656c7065723a205452414e534645525f4641494c454400604482015290519081900360640190fd5b5050505050565b604080516000808252602082019092526001600160a01b0384169083906040518082805190602001908083835b602083106137895780518252601f19909201916020918201910161376a565b6001836020036101000a03801982511681845116808217855250505050505090500191505060006040518083038185875af1925050503d80600081146137eb576040519150601f19603f3d011682016040523d82523d6000602084013e6137f0565b606091505b50509050806135485760405162461bcd60e51b81526004018080602001828103825260238152602001806147096023913960400191505060405180910390fd5b60008084116138705760405162461bcd60e51b81526004018080602001828103825260298152602001806146026029913960400191505060405180910390fd5b6000831180156138805750600082115b6138bb5760405162461bcd60e51b81526004018080602001828103825260268152602001806146726026913960400191505060405180910390fd5b60006138cf856103e563ffffffff61446f16565b905060006138e3828563ffffffff61446f16565b90506000613909836138fd886103e863ffffffff61446f16565b9063ffffffff6144db16565b905080828161391457fe5b04979650505050505050565b6060600282511015613979576040805162461bcd60e51b815260206004820152601c60248201527f506567617379734c6962726172793a20494e56414c49445f5041544800000000604482015290519081900360640190fd5b815167ffffffffffffffff8111801561399157600080fd5b506040519080825280602002602001820160405280156139bb578160200160208202803683370190505b50905082816001835103815181106139cf57fe5b60209081029190910101528151600019015b8015613a6557600080613a1e878660018603815181106139fd57fe5b6020026020010151878681518110613a1157fe5b6020026020010151614533565b91509150613a40848481518110613a3157fe5b602002602001015183836141f5565b846001850381518110613a4f57fe5b60209081029190910101525050600019016139e1565b509392505050565b60005b6001835103811015613ca057600080848381518110613a8b57fe5b6020026020010151858460010181518110613aa257fe5b6020026020010151915091506000613aba8383614391565b5090506000878560010181518110613ace57fe5b60200260200101519050600080836001600160a01b0316866001600160a01b031614613afc57826000613b00565b6000835b91509150600060028a51038810613b175788613b4b565b613b4b7f0000000000000000000000000000000000000000000000000000000000000000878c8b6002018151811061341c57fe5b9050613b787f00000000000000000000000000000000000000000000000000000000000000008888613138565b6001600160a01b031663022c0d9f84848460006040519080825280601f01601f191660200182016040528015613bb5576020820181803683370190505b506040518563ffffffff1660e01b815260040180858152602001848152602001836001600160a01b03166001600160a01b0316815260200180602001828103825283818151815260200191508051906020019080838360005b83811015613c26578181015183820152602001613c0e565b50505050905090810190601f168015613c535780820380516001836020036101000a031916815260200191505b5095505050505050600060405180830381600087803b158015613c7557600080fd5b505af1158015613c89573d6000803e3d6000fd5b505060019099019850613a70975050505050505050565b50505050565b604080516001600160a01b0385811660248301528481166044830152606480830185905283518084039091018152608490920183526020820180517bffffffffffffffffffffffffffffffffffffffffffffffffffffffff166323b872dd60e01b17815292518251600094606094938a169392918291908083835b60208310613d405780518252601f199092019160209182019101613d21565b6001836020036101000a0380198251168184511680821785525050505050509050019150506000604051808303816000865af19150503d8060008114613da2576040519150601f19603f3d011682016040523d82523d6000602084013e613da7565b606091505b5091509150818015613dd5575080511580613dd55750808060200190516020811015613dd257600080fd5b50515b613e105760405162461bcd60e51b81526004018080602001828103825260248152602001806147556024913960400191505060405180910390fd5b505050505050565b6060600282511015613e71576040805162461bcd60e51b815260206004820152601c60248201527f506567617379734c6962726172793a20494e56414c49445f5041544800000000604482015290519081900360640190fd5b815167ffffffffffffffff81118015613e8957600080fd5b50604051908082528060200260200182016040528015613eb3578160200160208202803683370190505b5090508281600081518110613ec457fe5b60200260200101818152505060005b6001835103811015613a6557600080613f0987868581518110613ef257fe5b6020026020010151878660010181518110613a1157fe5b91509150613f2b848481518110613f1c57fe5b60200260200101518383613830565b848460010181518110613f3a57fe5b60209081029190910101525050600101613ed3565b604080517fe6a439050000000000000000000000000000000000000000000000000000000081526001600160a01b03888116600483015287811660248301529151600092839283927f00000000000000000000000000000000000000000000000000000000000000009092169163e6a4390591604480820192602092909190829003018186803b158015613fe257600080fd5b505afa158015613ff6573d6000803e3d6000fd5b505050506040513d602081101561400c57600080fd5b50516001600160a01b031614156140d857604080517fc9c653960000000000000000000000000000000000000000000000000000000081526001600160a01b038a81166004830152898116602483015291517f00000000000000000000000000000000000000000000000000000000000000009092169163c9c65396916044808201926020929091908290030181600087803b1580156140ab57600080fd5b505af11580156140bf573d6000803e3d6000fd5b505050506040513d60208110156140d557600080fd5b50505b6000806141067f00000000000000000000000000000000000000000000000000000000000000008b8b614533565b91509150816000148015614118575080155b15614128578793508692506141e8565b60006141358984846142e5565b9050878111614188578581101561417d5760405162461bcd60e51b81526004018080602001828103825260248152602001806146e56024913960400191505060405180910390fd5b8894509250826141e6565b60006141958984866142e5565b9050898111156141a157fe5b878110156141e05760405162461bcd60e51b815260040180806020018281038252602481526020018061462b6024913960400191505060405180910390fd5b94508793505b505b5050965096945050505050565b60008084116142355760405162461bcd60e51b815260040180806020018281038252602a8152602001806146bb602a913960400191505060405180910390fd5b6000831180156142455750600082115b6142805760405162461bcd60e51b81526004018080602001828103825260268152602001806146726026913960400191505060405180910390fd5b60006142a46103e8614298868863ffffffff61446f16565b9063ffffffff61446f16565b905060006142be6103e5614298868963ffffffff61354d16565b90506142db60018284816142ce57fe5b049063ffffffff6144db16565b9695505050505050565b60008084116143255760405162461bcd60e51b815260040180806020018281038252602381526020018061464f6023913960400191505060405180910390fd5b6000831180156143355750600082115b6143705760405162461bcd60e51b81526004018080602001828103825260268152602001806146726026913960400191505060405180910390fd5b82614381858463ffffffff61446f16565b8161438857fe5b04949350505050565b600080826001600160a01b0316846001600160a01b031614156143e55760405162461bcd60e51b81526004018080602001828103825260238152602001806146986023913960400191505060405180910390fd5b826001600160a01b0316846001600160a01b031610614405578284614408565b83835b90925090506001600160a01b038216614468576040805162461bcd60e51b815260206004820152601c60248201527f506567617379734c6962726172793a205a45524f5f4144445245535300000000604482015290519081900360640190fd5b9250929050565b600081158061448a5750508082028282828161448757fe5b04145b6119af576040805162461bcd60e51b815260206004820152601460248201527f64732d6d6174682d6d756c2d6f766572666c6f77000000000000000000000000604482015290519081900360640190fd5b808201828110156119af576040805162461bcd60e51b815260206004820152601460248201527f64732d6d6174682d6164642d6f766572666c6f77000000000000000000000000604482015290519081900360640190fd5b60008060006145428585614391565b509050600080614553888888613138565b6001600160a01b0316630902f1ac6040518163ffffffff1660e01b815260040160606040518083038186803b15801561458b57600080fd5b505afa15801561459f573d6000803e3d6000fd5b505050506040513d60608110156145b557600080fd5b5080516020909101516dffffffffffffffffffffffffffff91821693501690506001600160a01b03878116908416146145ef5780826145f2565b81815b9099909850965050505050505056fe506567617379734c6962726172793a20494e53554646494349454e545f494e5055545f414d4f554e5450656761737973526f757465723a20494e53554646494349454e545f415f414d4f554e54506567617379734c6962726172793a20494e53554646494349454e545f414d4f554e54506567617379734c6962726172793a20494e53554646494349454e545f4c4951554944495459506567617379734c6962726172793a204944454e544943414c5f414444524553534553506567617379734c6962726172793a20494e53554646494349454e545f4f55545055545f414d4f554e5450656761737973526f757465723a20494e53554646494349454e545f425f414d4f554e545472616e7366657248656c7065723a205359535f5452414e534645525f4641494c454450656761737973526f757465723a20494e53554646494349454e545f4f55545055545f414d4f554e545472616e7366657248656c7065723a205452414e534645525f46524f4d5f4641494c454450656761737973526f757465723a204558434553534956455f494e5055545f414d4f554e54a26469706673582212207c70041f70db42137477a5d171fa04a92effa528ae5363bfcb362fed60093b5b64736f6c63430006060033",
  "linkReferences": {},
  "deployedLinkReferences": {}
}